:1000000012C019C018C017C016C015C014C013C044
:1000100012C011C010C00FC00EC00DC00CC00BC06C
:100020000AC009C008C011241FBECFE5D4E0DEBF5E
:10003000CDBF06D052C0E4CF5D9BFECF8CB90895F2
:10004000EF92FF920F931F93899A8898909AA09AA3
:1000500010BC83E389B988E18AB98EE880BD60E08D
:10006000E2E0F5E5A0E3B1E312E303E37BE39DE027
:10007000F92E83E0E82E48EC50E0A8985D9BFECF77
:10008000ECB95D9BFECFFCB95D9BFECFACB95D9B2F
:10009000FECFBCB95D9BFECF1CB95D9BFECF0CB9FA
:1000A0005D9BFECF7CB95D9BFECF605D6CB96053FC
:1000B0005D9BFECF7CB95D9BFECFFCB85D9BFECF08
:1000C000ECB8A89A2FEF3FEFCA010197F1F7215042
:0E00D0003040D1F76F5F6F73D0CFF894FFCF41
:00000001FF
